{
  "_format": "hh3-artifact-1",
  "contractName": "CertifiedSecondHandMarketplace",
  "sourceName": "contracts/CertifiedSecondHandMarketplace.sol",
  "abi": [
    {
      "inputs": [],
      "stateMutability": "nonpayable",
      "type": "constructor"
    },
    {
      "anonymous": false,
      "inputs": [
        {
          "indexed": false,
          "internalType": "uint16",
          "name": "id",
          "type": "uint16"
        },
        {
          "indexed": false,
          "internalType": "address",
          "name": "certifier",
          "type": "address"
        }
      ],
      "name": "ItemCertified",
      "type": "event"
    },
    {
      "anonymous": false,
      "inputs": [
        {
          "indexed": false,
          "internalType": "uint16",
          "name": "id",
          "type": "uint16"
        },
        {
          "indexed": false,
          "internalType": "address",
          "name": "owner",
          "type": "address"
        }
      ],
      "name": "ItemRegistered",
      "type": "event"
    },
    {
      "anonymous": false,
      "inputs": [
        {
          "indexed": false,
          "internalType": "uint16",
          "name": "id",
          "type": "uint16"
        },
        {
          "indexed": false,
          "internalType": "address",
          "name": "buyer",
          "type": "address"
        },
        {
          "indexed": false,
          "internalType": "uint256",
          "name": "price",
          "type": "uint256"
        }
      ],
      "name": "ItemSold",
      "type": "event"
    },
    {
      "anonymous": false,
      "inputs": [
        {
          "indexed": false,
          "internalType": "uint16",
          "name": "id",
          "type": "uint16"
        },
        {
          "indexed": false,
          "internalType": "address",
          "name": "from",
          "type": "address"
        },
        {
          "indexed": false,
          "internalType": "address",
          "name": "to",
          "type": "address"
        }
      ],
      "name": "ItemTransferred",
      "type": "event"
    },
    {
      "inputs": [
        {
          "internalType": "address",
          "name": "_certifier",
          "type": "address"
        }
      ],
      "name": "addCertifier",
      "outputs": [],
      "stateMutability": "nonpayable",
      "type": "function"
    },
    {
      "inputs": [
        {
          "internalType": "uint16",
          "name": "_itemId",
          "type": "uint16"
        }
      ],
      "name": "buyItem",
      "outputs": [],
      "stateMutability": "payable",
      "type": "function"
    },
    {
      "inputs": [
        {
          "internalType": "address",
          "name": "",
          "type": "address"
        }
      ],
      "name": "certifiers",
      "outputs": [
        {
          "internalType": "bool",
          "name": "",
          "type": "bool"
        }
      ],
      "stateMutability": "view",
      "type": "function"
    },
    {
      "inputs": [
        {
          "internalType": "uint16",
          "name": "_itemId",
          "type": "uint16"
        }
      ],
      "name": "certifyItem",
      "outputs": [],
      "stateMutability": "nonpayable",
      "type": "function"
    },
    {
      "inputs": [],
      "name": "getAllItems",
      "outputs": [
        {
          "internalType": "uint16[]",
          "name": "ids",
          "type": "uint16[]"
        },
        {
          "internalType": "string[]",
          "name": "names",
          "type": "string[]"
        },
        {
          "internalType": "string[]",
          "name": "numSeries",
          "type": "string[]"
        },
        {
          "internalType": "address[]",
          "name": "owners",
          "type": "address[]"
        },
        {
          "internalType": "bool[]",
          "name": "isCertifieds",
          "type": "bool[]"
        },
        {
          "internalType": "bool[]",
          "name": "forSales",
          "type": "bool[]"
        },
        {
          "internalType": "uint256[]",
          "name": "prices",
          "type": "uint256[]"
        },
        {
          "internalType": "uint256[]",
          "name": "transactionCounts",
          "type": "uint256[]"
        }
      ],
      "stateMutability": "view",
      "type": "function"
    },
    {
      "inputs": [
        {
          "internalType": "uint16",
          "name": "_itemId",
          "type": "uint16"
        }
      ],
      "name": "getItem",
      "outputs": [
        {
          "internalType": "uint16",
          "name": "id",
          "type": "uint16"
        },
        {
          "internalType": "string",
          "name": "name",
          "type": "string"
        },
        {
          "internalType": "string",
          "name": "numSerie",
          "type": "string"
        },
        {
          "internalType": "string",
          "name": "description",
          "type": "string"
        },
        {
          "internalType": "string",
          "name": "image",
          "type": "string"
        },
        {
          "internalType": "address",
          "name": "itemOwner",
          "type": "address"
        },
        {
          "internalType": "bool",
          "name": "isCertified",
          "type": "bool"
        },
        {
          "internalType": "bool",
          "name": "forSale",
          "type": "bool"
        },
        {
          "internalType": "uint256",
          "name": "price",
          "type": "uint256"
        },
        {
          "internalType": "uint256",
          "name": "transactionCount",
          "type": "uint256"
        }
      ],
      "stateMutability": "view",
      "type": "function"
    },
    {
      "inputs": [
        {
          "internalType": "uint16",
          "name": "_itemId",
          "type": "uint16"
        }
      ],
      "name": "getItemTransactions",
      "outputs": [
        {
          "internalType": "address[]",
          "name": "owners",
          "type": "address[]"
        },
        {
          "internalType": "uint32[]",
          "name": "datetimes",
          "type": "uint32[]"
        },
        {
          "internalType": "uint256[]",
          "name": "salePrices",
          "type": "uint256[]"
        }
      ],
      "stateMutability": "view",
      "type": "function"
    },
    {
      "inputs": [],
      "name": "getUserItems",
      "outputs": [
        {
          "internalType": "uint16[]",
          "name": "",
          "type": "uint16[]"
        }
      ],
      "stateMutability": "view",
      "type": "function"
    },
    {
      "inputs": [
        {
          "internalType": "uint16",
          "name": "_itemId",
          "type": "uint16"
        }
      ],
      "name": "isItemCertified",
      "outputs": [
        {
          "internalType": "bool",
          "name": "",
          "type": "bool"
        }
      ],
      "stateMutability": "view",
      "type": "function"
    },
    {
      "inputs": [
        {
          "internalType": "uint16",
          "name": "",
          "type": "uint16"
        }
      ],
      "name": "items",
      "outputs": [
        {
          "internalType": "uint16",
          "name": "id",
          "type": "uint16"
        },
        {
          "internalType": "string",
          "name": "name",
          "type": "string"
        },
        {
          "internalType": "string",
          "name": "numSerie",
          "type": "string"
        },
        {
          "internalType": "string",
          "name": "description",
          "type": "string"
        },
        {
          "internalType": "string",
          "name": "image",
          "type": "string"
        },
        {
          "internalType": "address",
          "name": "owner",
          "type": "address"
        },
        {
          "internalType": "bool",
          "name": "isCertified",
          "type": "bool"
        },
        {
          "internalType": "address",
          "name": "certifiedBy",
          "type": "address"
        },
        {
          "internalType": "bool",
          "name": "forSale",
          "type": "bool"
        },
        {
          "internalType": "uint256",
          "name": "price",
          "type": "uint256"
        }
      ],
      "stateMutability": "view",
      "type": "function"
    },
    {
      "inputs": [
        {
          "internalType": "uint16",
          "name": "_itemId",
          "type": "uint16"
        },
        {
          "internalType": "uint256",
          "name": "_price",
          "type": "uint256"
        }
      ],
      "name": "listForSale",
      "outputs": [],
      "stateMutability": "nonpayable",
      "type": "function"
    },
    {
      "inputs": [],
      "name": "owner",
      "outputs": [
        {
          "internalType": "address",
          "name": "",
          "type": "address"
        }
      ],
      "stateMutability": "view",
      "type": "function"
    },
    {
      "inputs": [
        {
          "internalType": "string",
          "name": "_name",
          "type": "string"
        },
        {
          "internalType": "string",
          "name": "_numSerie",
          "type": "string"
        },
        {
          "internalType": "string",
          "name": "_description",
          "type": "string"
        },
        {
          "internalType": "string",
          "name": "_image",
          "type": "string"
        }
      ],
      "name": "registerItem",
      "outputs": [],
      "stateMutability": "nonpayable",
      "type": "function"
    },
    {
      "inputs": [
        {
          "internalType": "uint16",
          "name": "_itemId",
          "type": "uint16"
        },
        {
          "internalType": "address",
          "name": "_to",
          "type": "address"
        }
      ],
      "name": "transferItem",
      "outputs": [],
      "stateMutability": "nonpayable",
      "type": "function"
    },
    {
      "inputs": [
        {
          "internalType": "address",
          "name": "",
          "type": "address"
        },
        {
          "internalType": "uint256",
          "name": "",
          "type": "uint256"
        }
      ],
      "name": "userItems",
      "outputs": [
        {
          "internalType": "uint16",
          "name": "",
          "type": "uint16"
        }
      ],
      "stateMutability": "view",
      "type": "function"
    }
  ],
  "bytecode": "0x6080604052348015600e575f5ffd5b505f805462010000600160b01b031916336201000081029190911782558152600360205260408120805460ff1916600117905561232a90819061005090395ff3fe6080604052600436106100e4575f3560e01c80635c3bd141116100875780638da5cb5b116100575780638da5cb5b1461028b578063b047f245146102c7578063b45df30d146102e6578063e8c91e5314610314575f5ffd5b80635c3bd141146101d55780635d42b2b9146102075780636502096a14610235578063810de9de14610256575f5ffd5b80633c170f3e116100c25780633c170f3e1461015c578063428fce101461016f578063497643171461018e5780634ba1d6aa146101ad575f5ffd5b80632b198366146100e85780632d5259c9146101095780633afdb3c31461013d575b5f5ffd5b3480156100f3575f5ffd5b50610107610102366004611b0e565b610349565b005b348015610114575f5ffd5b50610128610123366004611b3f565b6103a4565b60405190151581526020015b60405180910390f35b348015610148575f5ffd5b50610107610157366004611bf5565b61040a565b61010761016a366004611b3f565b6105c0565b34801561017a575f5ffd5b50610107610189366004611b3f565b61080f565b348015610199575f5ffd5b506101076101a8366004611caa565b610913565b3480156101b8575f5ffd5b506101c1610a94565b604051610134989796959493929190611e3c565b3480156101e0575f5ffd5b506101f46101ef366004611ee9565b6110c0565b60405161ffff9091168152602001610134565b348015610212575f5ffd5b50610128610221366004611b0e565b60036020525f908152604090205460ff1681565b348015610240575f5ffd5b50610249611102565b6040516101349190611f11565b348015610261575f5ffd5b50610275610270366004611b3f565b611187565b6040516101349a99989796959493929190611f23565b348015610296575f5ffd5b505f546102af906201000090046001600160a01b031681565b6040516001600160a01b039091168152602001610134565b3480156102d2575f5ffd5b506101076102e1366004611fb4565b61148d565b3480156102f1575f5ffd5b50610305610300366004611b3f565b6114fb565b60405161013493929190611fce565b34801561031f575f5ffd5b5061033361032e366004611b3f565b611746565b6040516101349a9998979695949392919061203f565b5f546201000090046001600160a01b031633146103815760405162461bcd60e51b8152600401610378906120de565b60405180910390fd5b6001600160a01b03165f908152600360205260409020805460ff19166001179055565b61ffff81165f9081526001602052604081206005015482906001600160a01b03166103e15760405162461bcd60e51b815260040161037890612101565b61ffff83165f90815260016020526040902060050154600160a01b900460ff1691505b50919050565b5f805461ffff16908061041c83612141565b82546101009290920a61ffff8181021990931691831602179091555f8054909116808252600160208190526040909220805461ffff191690911781559150810161046686826121df565b506002810161047585826121df565b506003810161048484826121df565b506004810161049383826121df565b5060058101805460ff60a01b19339081166001600160a81b03199283161790925560068301805490911690555f600783018190556040805160608101825283815263ffffffff4281166020808401918252838501868152600889018054600181810183559189528389209651600291820290970180549551909616600160a01b026001600160c01b03199095166001600160a01b039097169690961793909317845551928201929092558585528282528385208554815492830182559086528286206010830401805461ffff928316600f9094169095026101000a92830292820219909416919091179092559254825191168152918201929092527fc08a4a0f0edf4fc8ff21946e566eb933610ca04d413ee4e5aa03997f85bee1d4910160405180910390a15050505050565b61ffff81165f9081526001602052604090206005015481906001600160a01b03166105fd5760405162461bcd60e51b815260040161037890612101565b61ffff82165f9081526001602052604090206006810154600160a01b900460ff166106595760405162461bcd60e51b815260206004820152600c60248201526b4e6f7420666f722073616c6560a01b6044820152606401610378565b80600701543410156106a25760405162461bcd60e51b8152602060048201526012602482015271496e73756666696369656e742066756e647360701b6044820152606401610378565b6005810180546001600160a01b031981163390811790925560068301805460ff60a01b191690556040805160608101825292835263ffffffff4281166020808601918252600787018054878601908152600889018054600181810183555f9283529482209951600290910290990180549551909616600160a01b026001600160c01b03199095166001600160a01b03998a1617949094178555519390910192909255905491519390921692839282156108fc02929190818181858888f19350505050158015610773573d5f5f3e3d5ffd5b5061077e81856119c6565b335f8181526002602081815260408084208054600181018255908552938290206010850401805461ffff8b8116600f9097169095026101000a868102950219169390931790925560078601548251938452908301939093528101919091527f8d8aab5b08461ece2ae1fd44575de34fc427ad5979c5ae288226ed2058fcc42f9060600160405180910390a150505050565b335f9081526003602052604090205460ff1661085d5760405162461bcd60e51b815260206004820152600d60248201526c2737ba1031b2b93a34b334b2b960991b6044820152606401610378565b61ffff81165f9081526001602052604090206005015481906001600160a01b031661089a5760405162461bcd60e51b815260040161037890612101565b61ffff82165f8181526001602090815260409182902060058101805460ff60a01b1916600160a01b17905560060180546001600160a01b031916339081179091558251938452908301527fef2a2837668a673b7a3f2418757179905a08805ce08cd06132bb315ba4dd7e9f910160405180910390a15050565b61ffff82165f9081526001602052604090206005015482906001600160a01b031633146109525760405162461bcd60e51b8152600401610378906120de565b61ffff83165f9081526001602081815260408084206005810180546001600160a01b03808a166001600160a01b0319909216821790925560068301805460ff60a01b19169055835160608101855290815263ffffffff42811682870190815294820188815260089094018054808901825590895295909720905160029095020180549351909616600160a01b026001600160c01b031990931693169290921717835551910155610a0233846119c6565b6001600160a01b0382165f8181526002602081815260408084208054600181018255908552938290206010850401805461ffff8a8116600f9097169095026101000a8681029502191693909317909255815192835233908301528101919091527f794667c8126a8d9b52085ac79acd01dfaefb271ee230d7267aeb67383208757c9060600160405180910390a1505050565b5f54606090819081908190819081908190819061ffff16806001600160401b03811115610ac357610ac3611b58565b604051908082528060200260200182016040528015610aec578160200160208202803683370190505b5098508061ffff166001600160401b03811115610b0b57610b0b611b58565b604051908082528060200260200182016040528015610b3e57816020015b6060815260200190600190039081610b295790505b5097508061ffff166001600160401b03811115610b5d57610b5d611b58565b604051908082528060200260200182016040528015610b9057816020015b6060815260200190600190039081610b7b5790505b5096508061ffff166001600160401b03811115610baf57610baf611b58565b604051908082528060200260200182016040528015610bd8578160200160208202803683370190505b5095508061ffff166001600160401b03811115610bf757610bf7611b58565b604051908082528060200260200182016040528015610c20578160200160208202803683370190505b5094508061ffff166001600160401b03811115610c3f57610c3f611b58565b604051908082528060200260200182016040528015610c68578160200160208202803683370190505b5093508061ffff166001600160401b03811115610c8757610c87611b58565b604051908082528060200260200182016040528015610cb0578160200160208202803683370190505b5092508061ffff166001600160401b03811115610ccf57610ccf611b58565b604051908082528060200260200182016040528015610cf8578160200160208202803683370190505b50915060015b8161ffff168161ffff16116110b45761ffff81165f908152600160205260409020600501546001600160a01b0316156110a25761ffff8082165f90815260016020819052604090912054909116908b90610d589084612299565b61ffff1681518110610d6c57610d6c6122b9565b61ffff9283166020918202929092018101919091529082165f90815260019182905260409020018054610d9e90612161565b80601f0160208091040260200160405190810160405280929190818152602001828054610dca90612161565b8015610e155780601f10610dec57610100808354040283529160200191610e15565b820191905f5260205f20905b815481529060010190602001808311610df857829003601f168201915b505050505089600183610e289190612299565b61ffff1681518110610e3c57610e3c6122b9565b602002602001018190525060015f8261ffff1661ffff1681526020019081526020015f206002018054610e6e90612161565b80601f0160208091040260200160405190810160405280929190818152602001828054610e9a90612161565b8015610ee55780601f10610ebc57610100808354040283529160200191610ee5565b820191905f5260205f20905b815481529060010190602001808311610ec857829003601f168201915b505050505088600183610ef89190612299565b61ffff1681518110610f0c57610f0c6122b9565b60209081029190910181019190915261ffff82165f90815260019182905260409020600501546001600160a01b0316908890610f489084612299565b61ffff1681518110610f5c57610f5c6122b9565b6001600160a01b0390921660209283029190910182015261ffff82165f908152600191829052604090206005015460ff600160a01b90910416908790610fa29084612299565b61ffff1681518110610fb657610fb66122b9565b91151560209283029190910182015261ffff82165f9081526001918290526040902060060154600160a01b900460ff16908690610ff39084612299565b61ffff1681518110611007576110076122b9565b91151560209283029190910182015261ffff82165f908152600191829052604090206007015490859061103a9084612299565b61ffff168151811061104e5761104e6122b9565b60209081029190910181019190915261ffff82165f90815260019182905260409020600801549084906110819084612299565b61ffff1681518110611095576110956122b9565b6020026020010181815250505b806110ac81612141565b915050610cfe565b50509091929394959697565b6002602052815f5260405f2081815481106110d9575f80fd5b905f5260205f209060109182820401919006600202915091509054906101000a900461ffff1681565b335f9081526002602090815260409182902080548351818402810184019094528084526060939283018282801561117d57602002820191905f5260205f20905f905b82829054906101000a900461ffff1661ffff16815260200190600201906020826001010492830192600103820291508084116111445790505b5050505050905090565b61ffff81165f90815260016020526040812060050154606090819081908190859081908190819081908b906001600160a01b03166111d75760405162461bcd60e51b815260040161037890612101565b61ffff808d165f9081526001602081905260409091208054600582015460068301546007840154600885015495850180549597949094169593946002880194600389019460048a01946001600160a01b0382169460ff600160a01b9384900481169593909204909116929091899061124e90612161565b80601f016020809104026020016040519081016040528092919081815260200182805461127a90612161565b80156112c55780601f1061129c576101008083540402835291602001916112c5565b820191905f5260205f20905b8154815290600101906020018083116112a857829003601f168201915b505050505098508780546112d890612161565b80601f016020809104026020016040519081016040528092919081815260200182805461130490612161565b801561134f5780601f106113265761010080835404028352916020019161134f565b820191905f5260205f20905b81548152906001019060200180831161133257829003601f168201915b5050505050975086805461136290612161565b80601f016020809104026020016040519081016040528092919081815260200182805461138e90612161565b80156113d95780601f106113b0576101008083540402835291602001916113d9565b820191905f5260205f20905b8154815290600101906020018083116113bc57829003601f168201915b505050505096508580546113ec90612161565b80601f016020809104026020016040519081016040528092919081815260200182805461141890612161565b80156114635780601f1061143a57610100808354040283529160200191611463565b820191905f5260205f20905b81548152906001019060200180831161144657829003601f168201915b505050505095509b509b509b509b509b509b509b509b509b509b5050509193959799509193959799565b61ffff82165f9081526001602052604090206005015482906001600160a01b031633146114cc5760405162461bcd60e51b8152600401610378906120de565b5061ffff9091165f90815260016020526040902060068101805460ff60a01b1916600160a01b17905560070155565b61ffff81165f908152600160205260409020600501546060908190819084906001600160a01b031661153f5760405162461bcd60e51b815260040161037890612101565b61ffff85165f9081526001602052604090206008810154806001600160401b0381111561156e5761156e611b58565b604051908082528060200260200182016040528015611597578160200160208202803683370190505b509550806001600160401b038111156115b2576115b2611b58565b6040519080825280602002602001820160405280156115db578160200160208202803683370190505b509450806001600160401b038111156115f6576115f6611b58565b60405190808252806020026020018201604052801561161f578160200160208202803683370190505b5093505f5b8181101561173b57826008018181548110611641576116416122b9565b5f91825260209091206002909102015487516001600160a01b0390911690889083908110611671576116716122b9565b60200260200101906001600160a01b031690816001600160a01b0316815250508260080181815481106116a6576116a66122b9565b905f5260205f2090600202015f0160149054906101000a900463ffffffff168682815181106116d7576116d76122b9565b602002602001019063ffffffff16908163ffffffff1681525050826008018181548110611706576117066122b9565b905f5260205f20906002020160010154858281518110611728576117286122b9565b6020908102919091010152600101611624565b505050509193909250565b600160208190525f91825260409091208054918101805461ffff9093169261176d90612161565b80601f016020809104026020016040519081016040528092919081815260200182805461179990612161565b80156117e45780601f106117bb576101008083540402835291602001916117e4565b820191905f5260205f20905b8154815290600101906020018083116117c757829003601f168201915b5050505050908060020180546117f990612161565b80601f016020809104026020016040519081016040528092919081815260200182805461182590612161565b80156118705780601f1061184757610100808354040283529160200191611870565b820191905f5260205f20905b81548152906001019060200180831161185357829003601f168201915b50505050509080600301805461188590612161565b80601f01602080910402602001604051908101604052809291908181526020018280546118b190612161565b80156118fc5780601f106118d3576101008083540402835291602001916118fc565b820191905f5260205f20905b8154815290600101906020018083116118df57829003601f168201915b50505050509080600401805461191190612161565b80601f016020809104026020016040519081016040528092919081815260200182805461193d90612161565b80156119885780601f1061195f57610100808354040283529160200191611988565b820191905f5260205f20905b81548152906001019060200180831161196b57829003601f168201915b5050506005840154600685015460079095015493946001600160a01b038083169560ff600160a01b948590048116965091831694509290910416908a565b6001600160a01b0382165f908152600260205260408120905b8154811015611aed578261ffff168282815481106119ff576119ff6122b9565b5f9182526020909120601082040154600f9091166002026101000a900461ffff1603611ae55781548290611a35906001906122cd565b81548110611a4557611a456122b9565b905f5260205f2090601091828204019190066002029054906101000a900461ffff16828281548110611a7957611a796122b9565b905f5260205f2090601091828204019190066002026101000a81548161ffff021916908361ffff16021790555081805480611ab657611ab66122e0565b5f8281526020902060105f1990920191820401805461ffff6002600f8516026101000a02191690559055611aed565b6001016119df565b50505050565b80356001600160a01b0381168114611b09575f5ffd5b919050565b5f60208284031215611b1e575f5ffd5b611b2782611af3565b9392505050565b803561ffff81168114611b09575f5ffd5b5f60208284031215611b4f575f5ffd5b611b2782611b2e565b634e487b7160e01b5f52604160045260245ffd5b5f82601f830112611b7b575f5ffd5b81356001600160401b03811115611b9457611b94611b58565b604051601f8201601f19908116603f011681016001600160401b0381118282101715611bc257611bc2611b58565b604052818152838201602001851015611bd9575f5ffd5b816020850160208301375f918101602001919091529392505050565b5f5f5f5f60808587031215611c08575f5ffd5b84356001600160401b03811115611c1d575f5ffd5b611c2987828801611b6c565b94505060208501356001600160401b03811115611c44575f5ffd5b611c5087828801611b6c565b93505060408501356001600160401b03811115611c6b575f5ffd5b611c7787828801611b6c565b92505060608501356001600160401b03811115611c92575f5ffd5b611c9e87828801611b6c565b91505092959194509250565b5f5f60408385031215611cbb575f5ffd5b611cc483611b2e565b9150611cd260208401611af3565b90509250929050565b5f8151808452602084019350602083015f5b82811015611d0f57815161ffff16865260209586019590910190600101611ced565b5093949350505050565b5f81518084528060208401602086015e5f602082860101526020601f19601f83011685010191505092915050565b5f82825180855260208501945060208160051b830101602085015f5b83811015611d9557601f19858403018852611d7f838351611d19565b6020988901989093509190910190600101611d63565b50909695505050505050565b5f8151808452602084019350602083015f5b82811015611d0f5781516001600160a01b0316865260209586019590910190600101611db3565b5f8151808452602084019350602083015f5b82811015611d0f5781511515865260209586019590910190600101611dec565b5f8151808452602084019350602083015f5b82811015611d0f578151865260209586019590910190600101611e1e565b61010081525f611e5061010083018b611cdb565b8281036020840152611e62818b611d47565b90508281036040840152611e76818a611d47565b90508281036060840152611e8a8189611da1565b90508281036080840152611e9e8188611dda565b905082810360a0840152611eb28187611dda565b905082810360c0840152611ec68186611e0c565b905082810360e0840152611eda8185611e0c565b9b9a5050505050505050505050565b5f5f60408385031215611efa575f5ffd5b611f0383611af3565b946020939093013593505050565b602081525f611b276020830184611cdb565b61ffff8b16815261014060208201525f611f4161014083018c611d19565b8281036040840152611f53818c611d19565b90508281036060840152611f67818b611d19565b90508281036080840152611f7b818a611d19565b6001600160a01b039890981660a0840152505093151560c085015291151560e08401526101008301526101209091015295945050505050565b5f5f60408385031215611fc5575f5ffd5b611f0383611b2e565b606081525f611fe06060830186611da1565b82810360208401528085518083526020830191506020870192505f5b8181101561202057835163ffffffff16835260209384019390920191600101611ffc565b505083810360408501526120348186611e0c565b979650505050505050565b61ffff8b16815261014060208201525f61205d61014083018c611d19565b828103604084015261206f818c611d19565b90508281036060840152612083818b611d19565b90508281036080840152612097818a611d19565b6001600160a01b0389811660a086015288151560c0860152871660e085015285151561010085015291506120c89050565b826101208301529b9a5050505050505050505050565b6020808252600990820152682737ba1037bbb732b960b91b604082015260600190565b602080825260129082015271125d195b48191bd95cdb89dd08195e1a5cdd60721b604082015260600190565b634e487b7160e01b5f52601160045260245ffd5b5f61ffff821661ffff81036121585761215861212d565b60010192915050565b600181811c9082168061217557607f821691505b60208210810361040457634e487b7160e01b5f52602260045260245ffd5b601f8211156121da57805f5260205f20601f840160051c810160208510156121b85750805b601f840160051c820191505b818110156121d7575f81556001016121c4565b50505b505050565b81516001600160401b038111156121f8576121f8611b58565b61220c816122068454612161565b84612193565b6020601f82116001811461223e575f83156122275750848201515b5f19600385901b1c1916600184901b1784556121d7565b5f84815260208120601f198516915b8281101561226d578785015182556020948501946001909201910161224d565b508482101561228a57868401515f19600387901b60f8161c191681555b50505050600190811b01905550565b61ffff82811682821603908111156122b3576122b361212d565b92915050565b634e487b7160e01b5f52603260045260245ffd5b818103818111156122b3576122b361212d565b634e487b7160e01b5f52603160045260245ffdfea2646970667358221220f50877765765df4c6509de5f4ba675e5d028fc34781da88dff64a353bda8c7ba64736f6c634300081c0033",
  "linkReferences": {},
  "deployedLinkReferences": {},
  "immutableReferences": {},
  "inputSourceName": "project/contracts/CertifiedSecondHandMarketplace.sol",
  "buildInfoId": "solc-0_8_28-13288ac25f83b8302ce4ce0aefdd4ca7fb4e18c3"
}