{
  "_format": "hh3-artifact-1",
  "contractName": "CertifiedSecondHandMarketplace",
  "sourceName": "contracts/CertifiedSecondHandMarketplace.sol",
  "abi": [
    {
      "inputs": [],
      "stateMutability": "nonpayable",
      "type": "constructor"
    },
    {
      "anonymous": false,
      "inputs": [
        {
          "indexed": false,
          "internalType": "uint16",
          "name": "id",
          "type": "uint16"
        },
        {
          "indexed": false,
          "internalType": "address",
          "name": "certifier",
          "type": "address"
        }
      ],
      "name": "ItemCertified",
      "type": "event"
    },
    {
      "anonymous": false,
      "inputs": [
        {
          "indexed": false,
          "internalType": "uint16",
          "name": "id",
          "type": "uint16"
        },
        {
          "indexed": false,
          "internalType": "address",
          "name": "owner",
          "type": "address"
        }
      ],
      "name": "ItemRegistered",
      "type": "event"
    },
    {
      "anonymous": false,
      "inputs": [
        {
          "indexed": false,
          "internalType": "uint16",
          "name": "id",
          "type": "uint16"
        },
        {
          "indexed": false,
          "internalType": "address",
          "name": "buyer",
          "type": "address"
        },
        {
          "indexed": false,
          "internalType": "uint256",
          "name": "price",
          "type": "uint256"
        }
      ],
      "name": "ItemSold",
      "type": "event"
    },
    {
      "anonymous": false,
      "inputs": [
        {
          "indexed": false,
          "internalType": "uint16",
          "name": "id",
          "type": "uint16"
        },
        {
          "indexed": false,
          "internalType": "address",
          "name": "from",
          "type": "address"
        },
        {
          "indexed": false,
          "internalType": "address",
          "name": "to",
          "type": "address"
        }
      ],
      "name": "ItemTransferred",
      "type": "event"
    },
    {
      "inputs": [
        {
          "internalType": "address",
          "name": "_certifier",
          "type": "address"
        }
      ],
      "name": "addCertifier",
      "outputs": [],
      "stateMutability": "nonpayable",
      "type": "function"
    },
    {
      "inputs": [
        {
          "internalType": "uint16",
          "name": "_itemId",
          "type": "uint16"
        }
      ],
      "name": "buyItem",
      "outputs": [],
      "stateMutability": "payable",
      "type": "function"
    },
    {
      "inputs": [
        {
          "internalType": "address",
          "name": "",
          "type": "address"
        }
      ],
      "name": "certifiers",
      "outputs": [
        {
          "internalType": "bool",
          "name": "",
          "type": "bool"
        }
      ],
      "stateMutability": "view",
      "type": "function"
    },
    {
      "inputs": [
        {
          "internalType": "uint16",
          "name": "_itemId",
          "type": "uint16"
        }
      ],
      "name": "certifyItem",
      "outputs": [],
      "stateMutability": "nonpayable",
      "type": "function"
    },
    {
      "inputs": [],
      "name": "getAllItems",
      "outputs": [
        {
          "internalType": "uint16[]",
          "name": "ids",
          "type": "uint16[]"
        },
        {
          "internalType": "string[]",
          "name": "names",
          "type": "string[]"
        },
        {
          "internalType": "string[]",
          "name": "numSeries",
          "type": "string[]"
        },
        {
          "internalType": "string[]",
          "name": "images",
          "type": "string[]"
        },
        {
          "internalType": "string[]",
          "name": "descriptions",
          "type": "string[]"
        },
        {
          "internalType": "address[]",
          "name": "owners",
          "type": "address[]"
        },
        {
          "internalType": "bool[]",
          "name": "isCertifieds",
          "type": "bool[]"
        },
        {
          "internalType": "bool[]",
          "name": "forSales",
          "type": "bool[]"
        },
        {
          "internalType": "uint256[]",
          "name": "prices",
          "type": "uint256[]"
        },
        {
          "internalType": "uint256[]",
          "name": "transactionCounts",
          "type": "uint256[]"
        }
      ],
      "stateMutability": "view",
      "type": "function"
    },
    {
      "inputs": [
        {
          "internalType": "uint16",
          "name": "_itemId",
          "type": "uint16"
        }
      ],
      "name": "getItem",
      "outputs": [
        {
          "internalType": "uint16",
          "name": "id",
          "type": "uint16"
        },
        {
          "internalType": "string",
          "name": "name",
          "type": "string"
        },
        {
          "internalType": "string",
          "name": "numSerie",
          "type": "string"
        },
        {
          "internalType": "string",
          "name": "description",
          "type": "string"
        },
        {
          "internalType": "string",
          "name": "image",
          "type": "string"
        },
        {
          "internalType": "address",
          "name": "itemOwner",
          "type": "address"
        },
        {
          "internalType": "bool",
          "name": "isCertified",
          "type": "bool"
        },
        {
          "internalType": "bool",
          "name": "forSale",
          "type": "bool"
        },
        {
          "internalType": "uint256",
          "name": "price",
          "type": "uint256"
        },
        {
          "internalType": "uint256",
          "name": "transactionCount",
          "type": "uint256"
        }
      ],
      "stateMutability": "view",
      "type": "function"
    },
    {
      "inputs": [
        {
          "internalType": "uint16",
          "name": "_itemId",
          "type": "uint16"
        }
      ],
      "name": "getItemTransactions",
      "outputs": [
        {
          "internalType": "address[]",
          "name": "owners",
          "type": "address[]"
        },
        {
          "internalType": "uint32[]",
          "name": "datetimes",
          "type": "uint32[]"
        },
        {
          "internalType": "uint256[]",
          "name": "salePrices",
          "type": "uint256[]"
        }
      ],
      "stateMutability": "view",
      "type": "function"
    },
    {
      "inputs": [],
      "name": "getUserItems",
      "outputs": [
        {
          "internalType": "uint16[]",
          "name": "",
          "type": "uint16[]"
        }
      ],
      "stateMutability": "view",
      "type": "function"
    },
    {
      "inputs": [
        {
          "internalType": "uint16",
          "name": "_itemId",
          "type": "uint16"
        }
      ],
      "name": "isItemCertified",
      "outputs": [
        {
          "internalType": "bool",
          "name": "",
          "type": "bool"
        }
      ],
      "stateMutability": "view",
      "type": "function"
    },
    {
      "inputs": [
        {
          "internalType": "uint16",
          "name": "",
          "type": "uint16"
        }
      ],
      "name": "items",
      "outputs": [
        {
          "internalType": "uint16",
          "name": "id",
          "type": "uint16"
        },
        {
          "internalType": "string",
          "name": "name",
          "type": "string"
        },
        {
          "internalType": "string",
          "name": "numSerie",
          "type": "string"
        },
        {
          "internalType": "string",
          "name": "description",
          "type": "string"
        },
        {
          "internalType": "string",
          "name": "image",
          "type": "string"
        },
        {
          "internalType": "address",
          "name": "owner",
          "type": "address"
        },
        {
          "internalType": "bool",
          "name": "isCertified",
          "type": "bool"
        },
        {
          "internalType": "address",
          "name": "certifiedBy",
          "type": "address"
        },
        {
          "internalType": "bool",
          "name": "forSale",
          "type": "bool"
        },
        {
          "internalType": "uint256",
          "name": "price",
          "type": "uint256"
        }
      ],
      "stateMutability": "view",
      "type": "function"
    },
    {
      "inputs": [
        {
          "internalType": "uint16",
          "name": "_itemId",
          "type": "uint16"
        },
        {
          "internalType": "uint256",
          "name": "_price",
          "type": "uint256"
        }
      ],
      "name": "listForSale",
      "outputs": [],
      "stateMutability": "nonpayable",
      "type": "function"
    },
    {
      "inputs": [],
      "name": "owner",
      "outputs": [
        {
          "internalType": "address",
          "name": "",
          "type": "address"
        }
      ],
      "stateMutability": "view",
      "type": "function"
    },
    {
      "inputs": [
        {
          "internalType": "string",
          "name": "_name",
          "type": "string"
        },
        {
          "internalType": "string",
          "name": "_numSerie",
          "type": "string"
        },
        {
          "internalType": "string",
          "name": "_description",
          "type": "string"
        },
        {
          "internalType": "string",
          "name": "_image",
          "type": "string"
        }
      ],
      "name": "registerItem",
      "outputs": [],
      "stateMutability": "nonpayable",
      "type": "function"
    },
    {
      "inputs": [
        {
          "internalType": "uint16",
          "name": "_itemId",
          "type": "uint16"
        },
        {
          "internalType": "address",
          "name": "_to",
          "type": "address"
        }
      ],
      "name": "transferItem",
      "outputs": [],
      "stateMutability": "nonpayable",
      "type": "function"
    },
    {
      "inputs": [
        {
          "internalType": "address",
          "name": "",
          "type": "address"
        },
        {
          "internalType": "uint256",
          "name": "",
          "type": "uint256"
        }
      ],
      "name": "userItems",
      "outputs": [
        {
          "internalType": "uint16",
          "name": "",
          "type": "uint16"
        }
      ],
      "stateMutability": "view",
      "type": "function"
    }
  ],
  "bytecode": "0x6080604052348015600e575f5ffd5b505f805462010000600160b01b031916336201000081029190911782558152600360205260408120805460ff191660011790556125a290819061005090395ff3fe6080604052600436106100e4575f3560e01c80635c3bd141116100875780638da5cb5b116100575780638da5cb5b1461028d578063b047f245146102c9578063b45df30d146102e8578063e8c91e5314610316575f5ffd5b80635c3bd141146101d75780635d42b2b9146102095780636502096a14610237578063810de9de14610258575f5ffd5b80633c170f3e116100c25780633c170f3e1461015c578063428fce101461016f578063497643171461018e5780634ba1d6aa146101ad575f5ffd5b80632b198366146100e85780632d5259c9146101095780633afdb3c31461013d575b5f5ffd5b3480156100f3575f5ffd5b50610107610102366004611d5a565b61034b565b005b348015610114575f5ffd5b50610128610123366004611d8b565b6103a6565b60405190151581526020015b60405180910390f35b348015610148575f5ffd5b50610107610157366004611e41565b61040c565b61010761016a366004611d8b565b6105c2565b34801561017a575f5ffd5b50610107610189366004611d8b565b610811565b348015610199575f5ffd5b506101076101a8366004611ef6565b610915565b3480156101b8575f5ffd5b506101c1610a96565b6040516101349a99989796959493929190612088565b3480156101e2575f5ffd5b506101f66101f1366004612161565b61130c565b60405161ffff9091168152602001610134565b348015610214575f5ffd5b50610128610223366004611d5a565b60036020525f908152604090205460ff1681565b348015610242575f5ffd5b5061024b61134e565b6040516101349190612189565b348015610263575f5ffd5b50610277610272366004611d8b565b6113d3565b6040516101349a9998979695949392919061219b565b348015610298575f5ffd5b505f546102b1906201000090046001600160a01b031681565b6040516001600160a01b039091168152602001610134565b3480156102d4575f5ffd5b506101076102e336600461222c565b6116d9565b3480156102f3575f5ffd5b50610307610302366004611d8b565b611747565b60405161013493929190612246565b348015610321575f5ffd5b50610335610330366004611d8b565b611992565b6040516101349a999897969594939291906122b7565b5f546201000090046001600160a01b031633146103835760405162461bcd60e51b815260040161037a90612356565b60405180910390fd5b6001600160a01b03165f908152600360205260409020805460ff19166001179055565b61ffff81165f9081526001602052604081206005015482906001600160a01b03166103e35760405162461bcd60e51b815260040161037a90612379565b61ffff83165f90815260016020526040902060050154600160a01b900460ff1691505b50919050565b5f805461ffff16908061041e836123b9565b82546101009290920a61ffff8181021990931691831602179091555f8054909116808252600160208190526040909220805461ffff19169091178155915081016104688682612457565b50600281016104778582612457565b50600381016104868482612457565b50600481016104958382612457565b5060058101805460ff60a01b19339081166001600160a81b03199283161790925560068301805490911690555f600783018190556040805160608101825283815263ffffffff4281166020808401918252838501868152600889018054600181810183559189528389209651600291820290970180549551909616600160a01b026001600160c01b03199095166001600160a01b039097169690961793909317845551928201929092558585528282528385208554815492830182559086528286206010830401805461ffff928316600f9094169095026101000a92830292820219909416919091179092559254825191168152918201929092527fc08a4a0f0edf4fc8ff21946e566eb933610ca04d413ee4e5aa03997f85bee1d4910160405180910390a15050505050565b61ffff81165f9081526001602052604090206005015481906001600160a01b03166105ff5760405162461bcd60e51b815260040161037a90612379565b61ffff82165f9081526001602052604090206006810154600160a01b900460ff1661065b5760405162461bcd60e51b815260206004820152600c60248201526b4e6f7420666f722073616c6560a01b604482015260640161037a565b80600701543410156106a45760405162461bcd60e51b8152602060048201526012602482015271496e73756666696369656e742066756e647360701b604482015260640161037a565b6005810180546001600160a01b031981163390811790925560068301805460ff60a01b191690556040805160608101825292835263ffffffff4281166020808601918252600787018054878601908152600889018054600181810183555f9283529482209951600290910290990180549551909616600160a01b026001600160c01b03199095166001600160a01b03998a1617949094178555519390910192909255905491519390921692839282156108fc02929190818181858888f19350505050158015610775573d5f5f3e3d5ffd5b506107808185611c12565b335f8181526002602081815260408084208054600181018255908552938290206010850401805461ffff8b8116600f9097169095026101000a868102950219169390931790925560078601548251938452908301939093528101919091527f8d8aab5b08461ece2ae1fd44575de34fc427ad5979c5ae288226ed2058fcc42f9060600160405180910390a150505050565b335f9081526003602052604090205460ff1661085f5760405162461bcd60e51b815260206004820152600d60248201526c2737ba1031b2b93a34b334b2b960991b604482015260640161037a565b61ffff81165f9081526001602052604090206005015481906001600160a01b031661089c5760405162461bcd60e51b815260040161037a90612379565b61ffff82165f8181526001602090815260409182902060058101805460ff60a01b1916600160a01b17905560060180546001600160a01b031916339081179091558251938452908301527fef2a2837668a673b7a3f2418757179905a08805ce08cd06132bb315ba4dd7e9f910160405180910390a15050565b61ffff82165f9081526001602052604090206005015482906001600160a01b031633146109545760405162461bcd60e51b815260040161037a90612356565b61ffff83165f9081526001602081815260408084206005810180546001600160a01b03808a166001600160a01b0319909216821790925560068301805460ff60a01b19169055835160608101855290815263ffffffff42811682870190815294820188815260089094018054808901825590895295909720905160029095020180549351909616600160a01b026001600160c01b031990931693169290921717835551910155610a043384611c12565b6001600160a01b0382165f8181526002602081815260408084208054600181018255908552938290206010850401805461ffff8a8116600f9097169095026101000a8681029502191693909317909255815192835233908301528101919091527f794667c8126a8d9b52085ac79acd01dfaefb271ee230d7267aeb67383208757c9060600160405180910390a1505050565b5f5460609081908190819081908190819081908190819061ffff16806001600160401b03811115610ac957610ac9611da4565b604051908082528060200260200182016040528015610af2578160200160208202803683370190505b509a508061ffff166001600160401b03811115610b1157610b11611da4565b604051908082528060200260200182016040528015610b4457816020015b6060815260200190600190039081610b2f5790505b5099508061ffff166001600160401b03811115610b6357610b63611da4565b604051908082528060200260200182016040528015610b9657816020015b6060815260200190600190039081610b815790505b5098508061ffff166001600160401b03811115610bb557610bb5611da4565b604051908082528060200260200182016040528015610be857816020015b6060815260200190600190039081610bd35790505b5096508061ffff166001600160401b03811115610c0757610c07611da4565b604051908082528060200260200182016040528015610c3a57816020015b6060815260200190600190039081610c255790505b5097508061ffff166001600160401b03811115610c5957610c59611da4565b604051908082528060200260200182016040528015610c82578160200160208202803683370190505b5095508061ffff166001600160401b03811115610ca157610ca1611da4565b604051908082528060200260200182016040528015610cca578160200160208202803683370190505b5094508061ffff166001600160401b03811115610ce957610ce9611da4565b604051908082528060200260200182016040528015610d12578160200160208202803683370190505b5093508061ffff166001600160401b03811115610d3157610d31611da4565b604051908082528060200260200182016040528015610d5a578160200160208202803683370190505b5092508061ffff166001600160401b03811115610d7957610d79611da4565b604051908082528060200260200182016040528015610da2578160200160208202803683370190505b50915060015b8161ffff168161ffff16116112fe5761ffff81165f908152600160205260409020600501546001600160a01b0316156112ec5761ffff8082165f90815260016020819052604090912054909116908d90610e029084612511565b61ffff1681518110610e1657610e16612531565b61ffff9283166020918202929092018101919091529082165f90815260019182905260409020018054610e48906123d9565b80601f0160208091040260200160405190810160405280929190818152602001828054610e74906123d9565b8015610ebf5780601f10610e9657610100808354040283529160200191610ebf565b820191905f5260205f20905b815481529060010190602001808311610ea257829003601f168201915b50505050508b600183610ed29190612511565b61ffff1681518110610ee657610ee6612531565b602002602001018190525060015f8261ffff1661ffff1681526020019081526020015f206002018054610f18906123d9565b80601f0160208091040260200160405190810160405280929190818152602001828054610f44906123d9565b8015610f8f5780601f10610f6657610100808354040283529160200191610f8f565b820191905f5260205f20905b815481529060010190602001808311610f7257829003601f168201915b50505050508a600183610fa29190612511565b61ffff1681518110610fb657610fb6612531565b602002602001018190525060015f8261ffff1661ffff1681526020019081526020015f206004018054610fe8906123d9565b80601f0160208091040260200160405190810160405280929190818152602001828054611014906123d9565b801561105f5780601f106110365761010080835404028352916020019161105f565b820191905f5260205f20905b81548152906001019060200180831161104257829003601f168201915b5050505050896001836110729190612511565b61ffff168151811061108657611086612531565b602002602001018190525060015f8261ffff1661ffff1681526020019081526020015f2060030180546110b8906123d9565b80601f01602080910402602001604051908101604052809291908181526020018280546110e4906123d9565b801561112f5780601f106111065761010080835404028352916020019161112f565b820191905f5260205f20905b81548152906001019060200180831161111257829003601f168201915b5050505050886001836111429190612511565b61ffff168151811061115657611156612531565b60209081029190910181019190915261ffff82165f90815260019182905260409020600501546001600160a01b03169088906111929084612511565b61ffff16815181106111a6576111a6612531565b6001600160a01b0390921660209283029190910182015261ffff82165f908152600191829052604090206005015460ff600160a01b909104169087906111ec9084612511565b61ffff168151811061120057611200612531565b91151560209283029190910182015261ffff82165f9081526001918290526040902060060154600160a01b900460ff1690869061123d9084612511565b61ffff168151811061125157611251612531565b91151560209283029190910182015261ffff82165f90815260019182905260409020600701549085906112849084612511565b61ffff168151811061129857611298612531565b60209081029190910181019190915261ffff82165f90815260019182905260409020600801549084906112cb9084612511565b61ffff16815181106112df576112df612531565b6020026020010181815250505b806112f6816123b9565b915050610da8565b505090919293949596979899565b6002602052815f5260405f208181548110611325575f80fd5b905f5260205f209060109182820401919006600202915091509054906101000a900461ffff1681565b335f908152600260209081526040918290208054835181840281018401909452808452606093928301828280156113c957602002820191905f5260205f20905f905b82829054906101000a900461ffff1661ffff16815260200190600201906020826001010492830192600103820291508084116113905790505b5050505050905090565b61ffff81165f90815260016020526040812060050154606090819081908190859081908190819081908b906001600160a01b03166114235760405162461bcd60e51b815260040161037a90612379565b61ffff808d165f9081526001602081905260409091208054600582015460068301546007840154600885015495850180549597949094169593946002880194600389019460048a01946001600160a01b0382169460ff600160a01b9384900481169593909204909116929091899061149a906123d9565b80601f01602080910402602001604051908101604052809291908181526020018280546114c6906123d9565b80156115115780601f106114e857610100808354040283529160200191611511565b820191905f5260205f20905b8154815290600101906020018083116114f457829003601f168201915b50505050509850878054611524906123d9565b80601f0160208091040260200160405190810160405280929190818152602001828054611550906123d9565b801561159b5780601f106115725761010080835404028352916020019161159b565b820191905f5260205f20905b81548152906001019060200180831161157e57829003601f168201915b505050505097508680546115ae906123d9565b80601f01602080910402602001604051908101604052809291908181526020018280546115da906123d9565b80156116255780601f106115fc57610100808354040283529160200191611625565b820191905f5260205f20905b81548152906001019060200180831161160857829003601f168201915b50505050509650858054611638906123d9565b80601f0160208091040260200160405190810160405280929190818152602001828054611664906123d9565b80156116af5780601f10611686576101008083540402835291602001916116af565b820191905f5260205f20905b81548152906001019060200180831161169257829003601f168201915b505050505095509b509b509b509b509b509b509b509b509b509b5050509193959799509193959799565b61ffff82165f9081526001602052604090206005015482906001600160a01b031633146117185760405162461bcd60e51b815260040161037a90612356565b5061ffff9091165f90815260016020526040902060068101805460ff60a01b1916600160a01b17905560070155565b61ffff81165f908152600160205260409020600501546060908190819084906001600160a01b031661178b5760405162461bcd60e51b815260040161037a90612379565b61ffff85165f9081526001602052604090206008810154806001600160401b038111156117ba576117ba611da4565b6040519080825280602002602001820160405280156117e3578160200160208202803683370190505b509550806001600160401b038111156117fe576117fe611da4565b604051908082528060200260200182016040528015611827578160200160208202803683370190505b509450806001600160401b0381111561184257611842611da4565b60405190808252806020026020018201604052801561186b578160200160208202803683370190505b5093505f5b818110156119875782600801818154811061188d5761188d612531565b5f91825260209091206002909102015487516001600160a01b03909116908890839081106118bd576118bd612531565b60200260200101906001600160a01b031690816001600160a01b0316815250508260080181815481106118f2576118f2612531565b905f5260205f2090600202015f0160149054906101000a900463ffffffff1686828151811061192357611923612531565b602002602001019063ffffffff16908163ffffffff168152505082600801818154811061195257611952612531565b905f5260205f2090600202016001015485828151811061197457611974612531565b6020908102919091010152600101611870565b505050509193909250565b600160208190525f91825260409091208054918101805461ffff909316926119b9906123d9565b80601f01602080910402602001604051908101604052809291908181526020018280546119e5906123d9565b8015611a305780601f10611a0757610100808354040283529160200191611a30565b820191905f5260205f20905b815481529060010190602001808311611a1357829003601f168201915b505050505090806002018054611a45906123d9565b80601f0160208091040260200160405190810160405280929190818152602001828054611a71906123d9565b8015611abc5780601f10611a9357610100808354040283529160200191611abc565b820191905f5260205f20905b815481529060010190602001808311611a9f57829003601f168201915b505050505090806003018054611ad1906123d9565b80601f0160208091040260200160405190810160405280929190818152602001828054611afd906123d9565b8015611b485780601f10611b1f57610100808354040283529160200191611b48565b820191905f5260205f20905b815481529060010190602001808311611b2b57829003601f168201915b505050505090806004018054611b5d906123d9565b80601f0160208091040260200160405190810160405280929190818152602001828054611b89906123d9565b8015611bd45780601f10611bab57610100808354040283529160200191611bd4565b820191905f5260205f20905b815481529060010190602001808311611bb757829003601f168201915b5050506005840154600685015460079095015493946001600160a01b038083169560ff600160a01b948590048116965091831694509290910416908a565b6001600160a01b0382165f908152600260205260408120905b8154811015611d39578261ffff16828281548110611c4b57611c4b612531565b5f9182526020909120601082040154600f9091166002026101000a900461ffff1603611d315781548290611c8190600190612545565b81548110611c9157611c91612531565b905f5260205f2090601091828204019190066002029054906101000a900461ffff16828281548110611cc557611cc5612531565b905f5260205f2090601091828204019190066002026101000a81548161ffff021916908361ffff16021790555081805480611d0257611d02612558565b5f8281526020902060105f1990920191820401805461ffff6002600f8516026101000a02191690559055611d39565b600101611c2b565b50505050565b80356001600160a01b0381168114611d55575f5ffd5b919050565b5f60208284031215611d6a575f5ffd5b611d7382611d3f565b9392505050565b803561ffff81168114611d55575f5ffd5b5f60208284031215611d9b575f5ffd5b611d7382611d7a565b634e487b7160e01b5f52604160045260245ffd5b5f82601f830112611dc7575f5ffd5b81356001600160401b03811115611de057611de0611da4565b604051601f8201601f19908116603f011681016001600160401b0381118282101715611e0e57611e0e611da4565b604052818152838201602001851015611e25575f5ffd5b816020850160208301375f918101602001919091529392505050565b5f5f5f5f60808587031215611e54575f5ffd5b84356001600160401b03811115611e69575f5ffd5b611e7587828801611db8565b94505060208501356001600160401b03811115611e90575f5ffd5b611e9c87828801611db8565b93505060408501356001600160401b03811115611eb7575f5ffd5b611ec387828801611db8565b92505060608501356001600160401b03811115611ede575f5ffd5b611eea87828801611db8565b91505092959194509250565b5f5f60408385031215611f07575f5ffd5b611f1083611d7a565b9150611f1e60208401611d3f565b90509250929050565b5f8151808452602084019350602083015f5b82811015611f5b57815161ffff16865260209586019590910190600101611f39565b5093949350505050565b5f81518084528060208401602086015e5f602082860101526020601f19601f83011685010191505092915050565b5f82825180855260208501945060208160051b830101602085015f5b83811015611fe157601f19858403018852611fcb838351611f65565b6020988901989093509190910190600101611faf565b50909695505050505050565b5f8151808452602084019350602083015f5b82811015611f5b5781516001600160a01b0316865260209586019590910190600101611fff565b5f8151808452602084019350602083015f5b82811015611f5b5781511515865260209586019590910190600101612038565b5f8151808452602084019350602083015f5b82811015611f5b57815186526020958601959091019060010161206a565b61014081525f61209c61014083018d611f27565b82810360208401526120ae818d611f93565b905082810360408401526120c2818c611f93565b905082810360608401526120d6818b611f93565b905082810360808401526120ea818a611f93565b905082810360a08401526120fe8189611fed565b905082810360c08401526121128188612026565b905082810360e08401526121268187612026565b905082810361010084015261213b8186612058565b90508281036101208401526121508185612058565b9d9c50505050505050505050505050565b5f5f60408385031215612172575f5ffd5b61217b83611d3f565b946020939093013593505050565b602081525f611d736020830184611f27565b61ffff8b16815261014060208201525f6121b961014083018c611f65565b82810360408401526121cb818c611f65565b905082810360608401526121df818b611f65565b905082810360808401526121f3818a611f65565b6001600160a01b039890981660a0840152505093151560c085015291151560e08401526101008301526101209091015295945050505050565b5f5f6040838503121561223d575f5ffd5b61217b83611d7a565b606081525f6122586060830186611fed565b82810360208401528085518083526020830191506020870192505f5b8181101561229857835163ffffffff16835260209384019390920191600101612274565b505083810360408501526122ac8186612058565b979650505050505050565b61ffff8b16815261014060208201525f6122d561014083018c611f65565b82810360408401526122e7818c611f65565b905082810360608401526122fb818b611f65565b9050828103608084015261230f818a611f65565b6001600160a01b0389811660a086015288151560c0860152871660e085015285151561010085015291506123409050565b826101208301529b9a5050505050505050505050565b6020808252600990820152682737ba1037bbb732b960b91b604082015260600190565b602080825260129082015271125d195b48191bd95cdb89dd08195e1a5cdd60721b604082015260600190565b634e487b7160e01b5f52601160045260245ffd5b5f61ffff821661ffff81036123d0576123d06123a5565b60010192915050565b600181811c908216806123ed57607f821691505b60208210810361040657634e487b7160e01b5f52602260045260245ffd5b601f82111561245257805f5260205f20601f840160051c810160208510156124305750805b601f840160051c820191505b8181101561244f575f815560010161243c565b50505b505050565b81516001600160401b0381111561247057612470611da4565b6124848161247e84546123d9565b8461240b565b6020601f8211600181146124b6575f831561249f5750848201515b5f19600385901b1c1916600184901b17845561244f565b5f84815260208120601f198516915b828110156124e557878501518255602094850194600190920191016124c5565b508482101561250257868401515f19600387901b60f8161c191681555b50505050600190811b01905550565b61ffff828116828216039081111561252b5761252b6123a5565b92915050565b634e487b7160e01b5f52603260045260245ffd5b8181038181111561252b5761252b6123a5565b634e487b7160e01b5f52603160045260245ffdfea2646970667358221220338b6ff623b030f6513ec4379231d7f3559dc781c6315600a11df57cd4e21e6864736f6c634300081c0033",
  "linkReferences": {},
  "deployedLinkReferences": {},
  "immutableReferences": {},
  "inputSourceName": "project/contracts/CertifiedSecondHandMarketplace.sol",
  "buildInfoId": "solc-0_8_28-1d7414b9cbc51694dd8c7341e5a394557231da16"
}