{
  "_format": "hh3-artifact-1",
  "contractName": "CertifiedSecondHandMarketplace",
  "sourceName": "contracts/CertifiedSecondHandMarketplace.sol",
  "abi": [
    {
      "inputs": [],
      "stateMutability": "nonpayable",
      "type": "constructor"
    },
    {
      "anonymous": false,
      "inputs": [
        {
          "indexed": false,
          "internalType": "uint256",
          "name": "tokenId",
          "type": "uint256"
        },
        {
          "indexed": false,
          "internalType": "address",
          "name": "certifier",
          "type": "address"
        }
      ],
      "name": "ItemCertified",
      "type": "event"
    },
    {
      "anonymous": false,
      "inputs": [
        {
          "indexed": false,
          "internalType": "uint256",
          "name": "tokenId",
          "type": "uint256"
        },
        {
          "indexed": false,
          "internalType": "uint256",
          "name": "price",
          "type": "uint256"
        }
      ],
      "name": "ItemForSale",
      "type": "event"
    },
    {
      "anonymous": false,
      "inputs": [
        {
          "indexed": false,
          "internalType": "uint256",
          "name": "tokenId",
          "type": "uint256"
        },
        {
          "indexed": false,
          "internalType": "string",
          "name": "serialNumber",
          "type": "string"
        },
        {
          "indexed": false,
          "internalType": "address",
          "name": "owner",
          "type": "address"
        }
      ],
      "name": "ItemRegistered",
      "type": "event"
    },
    {
      "anonymous": false,
      "inputs": [
        {
          "indexed": false,
          "internalType": "uint256",
          "name": "tokenId",
          "type": "uint256"
        },
        {
          "indexed": false,
          "internalType": "address",
          "name": "buyer",
          "type": "address"
        },
        {
          "indexed": false,
          "internalType": "uint256",
          "name": "price",
          "type": "uint256"
        }
      ],
      "name": "ItemSold",
      "type": "event"
    },
    {
      "anonymous": false,
      "inputs": [
        {
          "indexed": false,
          "internalType": "uint256",
          "name": "tokenId",
          "type": "uint256"
        },
        {
          "indexed": false,
          "internalType": "address",
          "name": "from",
          "type": "address"
        },
        {
          "indexed": false,
          "internalType": "address",
          "name": "to",
          "type": "address"
        }
      ],
      "name": "ItemTransferred",
      "type": "event"
    },
    {
      "anonymous": false,
      "inputs": [
        {
          "indexed": false,
          "internalType": "address",
          "name": "user",
          "type": "address"
        }
      ],
      "name": "UserRegistered",
      "type": "event"
    },
    {
      "inputs": [
        {
          "internalType": "address",
          "name": "_certifier",
          "type": "address"
        }
      ],
      "name": "addCertifier",
      "outputs": [],
      "stateMutability": "nonpayable",
      "type": "function"
    },
    {
      "inputs": [
        {
          "internalType": "address",
          "name": "",
          "type": "address"
        }
      ],
      "name": "certifiers",
      "outputs": [
        {
          "internalType": "bool",
          "name": "",
          "type": "bool"
        }
      ],
      "stateMutability": "view",
      "type": "function"
    },
    {
      "inputs": [
        {
          "internalType": "uint256",
          "name": "_tokenId",
          "type": "uint256"
        }
      ],
      "name": "certifyItem",
      "outputs": [],
      "stateMutability": "nonpayable",
      "type": "function"
    },
    {
      "inputs": [],
      "name": "contractOwner",
      "outputs": [
        {
          "internalType": "address",
          "name": "",
          "type": "address"
        }
      ],
      "stateMutability": "view",
      "type": "function"
    },
    {
      "inputs": [],
      "name": "getActiveItemsCount",
      "outputs": [
        {
          "internalType": "uint256",
          "name": "",
          "type": "uint256"
        }
      ],
      "stateMutability": "view",
      "type": "function"
    },
    {
      "inputs": [],
      "name": "getAvailableItems",
      "outputs": [
        {
          "internalType": "uint256[]",
          "name": "",
          "type": "uint256[]"
        }
      ],
      "stateMutability": "view",
      "type": "function"
    },
    {
      "inputs": [],
      "name": "getAvailableItemsCount",
      "outputs": [
        {
          "internalType": "uint256",
          "name": "",
          "type": "uint256"
        }
      ],
      "stateMutability": "view",
      "type": "function"
    },
    {
      "inputs": [],
      "name": "getCertifiedItemsCount",
      "outputs": [
        {
          "internalType": "uint256",
          "name": "",
          "type": "uint256"
        }
      ],
      "stateMutability": "view",
      "type": "function"
    },
    {
      "inputs": [
        {
          "internalType": "uint256",
          "name": "_tokenId",
          "type": "uint256"
        }
      ],
      "name": "getItemHistory",
      "outputs": [
        {
          "components": [
            {
              "internalType": "address",
              "name": "previousOwner",
              "type": "address"
            },
            {
              "internalType": "address",
              "name": "newOwner",
              "type": "address"
            },
            {
              "internalType": "uint256",
              "name": "transferDate",
              "type": "uint256"
            },
            {
              "internalType": "string",
              "name": "transactionType",
              "type": "string"
            },
            {
              "internalType": "uint256",
              "name": "price",
              "type": "uint256"
            }
          ],
          "internalType": "struct CertifiedSecondHandMarketplace.Transaction[]",
          "name": "",
          "type": "tuple[]"
        }
      ],
      "stateMutability": "view",
      "type": "function"
    },
    {
      "inputs": [],
      "name": "getTotalItemsCount",
      "outputs": [
        {
          "internalType": "uint256",
          "name": "",
          "type": "uint256"
        }
      ],
      "stateMutability": "view",
      "type": "function"
    },
    {
      "inputs": [
        {
          "internalType": "address",
          "name": "_user",
          "type": "address"
        }
      ],
      "name": "getUserItems",
      "outputs": [
        {
          "internalType": "uint256[]",
          "name": "",
          "type": "uint256[]"
        }
      ],
      "stateMutability": "view",
      "type": "function"
    },
    {
      "inputs": [],
      "name": "getUserItemsCount",
      "outputs": [
        {
          "internalType": "uint256",
          "name": "",
          "type": "uint256"
        }
      ],
      "stateMutability": "view",
      "type": "function"
    },
    {
      "inputs": [
        {
          "internalType": "uint256",
          "name": "",
          "type": "uint256"
        },
        {
          "internalType": "uint256",
          "name": "",
          "type": "uint256"
        }
      ],
      "name": "itemTransactions",
      "outputs": [
        {
          "internalType": "address",
          "name": "previousOwner",
          "type": "address"
        },
        {
          "internalType": "address",
          "name": "newOwner",
          "type": "address"
        },
        {
          "internalType": "uint256",
          "name": "transferDate",
          "type": "uint256"
        },
        {
          "internalType": "string",
          "name": "transactionType",
          "type": "string"
        },
        {
          "internalType": "uint256",
          "name": "price",
          "type": "uint256"
        }
      ],
      "stateMutability": "view",
      "type": "function"
    },
    {
      "inputs": [
        {
          "internalType": "uint256",
          "name": "",
          "type": "uint256"
        }
      ],
      "name": "items",
      "outputs": [
        {
          "internalType": "uint256",
          "name": "tokenId",
          "type": "uint256"
        },
        {
          "internalType": "string",
          "name": "name",
          "type": "string"
        },
        {
          "internalType": "uint256",
          "name": "value",
          "type": "uint256"
        },
        {
          "internalType": "string",
          "name": "description",
          "type": "string"
        },
        {
          "internalType": "string",
          "name": "serialNumber",
          "type": "string"
        },
        {
          "internalType": "address",
          "name": "owner",
          "type": "address"
        },
        {
          "internalType": "string",
          "name": "imageURI",
          "type": "string"
        },
        {
          "internalType": "bool",
          "name": "isForSale",
          "type": "bool"
        },
        {
          "internalType": "uint256",
          "name": "salePrice",
          "type": "uint256"
        },
        {
          "internalType": "bool",
          "name": "isCertified",
          "type": "bool"
        },
        {
          "internalType": "address",
          "name": "certifiedBy",
          "type": "address"
        }
      ],
      "stateMutability": "view",
      "type": "function"
    },
    {
      "inputs": [
        {
          "internalType": "uint256",
          "name": "_tokenId",
          "type": "uint256"
        },
        {
          "internalType": "uint256",
          "name": "_salePrice",
          "type": "uint256"
        }
      ],
      "name": "listItemForSale",
      "outputs": [],
      "stateMutability": "nonpayable",
      "type": "function"
    },
    {
      "inputs": [
        {
          "internalType": "uint256",
          "name": "_tokenId",
          "type": "uint256"
        }
      ],
      "name": "ownerOf",
      "outputs": [
        {
          "internalType": "address",
          "name": "",
          "type": "address"
        }
      ],
      "stateMutability": "view",
      "type": "function"
    },
    {
      "inputs": [],
      "name": "platformFee",
      "outputs": [
        {
          "internalType": "uint256",
          "name": "",
          "type": "uint256"
        }
      ],
      "stateMutability": "view",
      "type": "function"
    },
    {
      "inputs": [],
      "name": "platformWallet",
      "outputs": [
        {
          "internalType": "address",
          "name": "",
          "type": "address"
        }
      ],
      "stateMutability": "view",
      "type": "function"
    },
    {
      "inputs": [
        {
          "internalType": "uint256",
          "name": "_tokenId",
          "type": "uint256"
        }
      ],
      "name": "purchaseItem",
      "outputs": [],
      "stateMutability": "payable",
      "type": "function"
    },
    {
      "inputs": [
        {
          "internalType": "string",
          "name": "_name",
          "type": "string"
        },
        {
          "internalType": "uint256",
          "name": "_value",
          "type": "uint256"
        },
        {
          "internalType": "string",
          "name": "_description",
          "type": "string"
        },
        {
          "internalType": "string",
          "name": "_serialNumber",
          "type": "string"
        },
        {
          "internalType": "string",
          "name": "_imageURI",
          "type": "string"
        }
      ],
      "name": "registerItem",
      "outputs": [],
      "stateMutability": "nonpayable",
      "type": "function"
    },
    {
      "inputs": [],
      "name": "registerUser",
      "outputs": [],
      "stateMutability": "nonpayable",
      "type": "function"
    },
    {
      "inputs": [
        {
          "internalType": "address",
          "name": "",
          "type": "address"
        }
      ],
      "name": "registeredUsers",
      "outputs": [
        {
          "internalType": "bool",
          "name": "",
          "type": "bool"
        }
      ],
      "stateMutability": "view",
      "type": "function"
    },
    {
      "inputs": [
        {
          "internalType": "string",
          "name": "",
          "type": "string"
        }
      ],
      "name": "serialNumberToTokenId",
      "outputs": [
        {
          "internalType": "uint256",
          "name": "",
          "type": "uint256"
        }
      ],
      "stateMutability": "view",
      "type": "function"
    },
    {
      "inputs": [
        {
          "internalType": "uint256",
          "name": "",
          "type": "uint256"
        }
      ],
      "name": "tokenOwner",
      "outputs": [
        {
          "internalType": "address",
          "name": "",
          "type": "address"
        }
      ],
      "stateMutability": "view",
      "type": "function"
    },
    {
      "inputs": [
        {
          "internalType": "address",
          "name": "_to",
          "type": "address"
        },
        {
          "internalType": "uint256",
          "name": "_tokenId",
          "type": "uint256"
        }
      ],
      "name": "transferItem",
      "outputs": [],
      "stateMutability": "nonpayable",
      "type": "function"
    },
    {
      "inputs": [
        {
          "internalType": "address",
          "name": "",
          "type": "address"
        },
        {
          "internalType": "uint256",
          "name": "",
          "type": "uint256"
        }
      ],
      "name": "userItems",
      "outputs": [
        {
          "internalType": "uint256",
          "name": "",
          "type": "uint256"
        }
      ],
      "stateMutability": "view",
      "type": "function"
    },
    {
      "inputs": [
        {
          "internalType": "string",
          "name": "_serialNumber",
          "type": "string"
        }
      ],
      "name": "verifyItemBySerialNumber",
      "outputs": [
        {
          "internalType": "bool",
          "name": "exists",
          "type": "bool"
        },
        {
          "internalType": "uint256",
          "name": "tokenId",
          "type": "uint256"
        },
        {
          "internalType": "address",
          "name": "owner",
          "type": "address"
        },
        {
          "internalType": "bool",
          "name": "isCertified",
          "type": "bool"
        }
      ],
      "stateMutability": "view",
      "type": "function"
    }
  ],
  "bytecode": "0x608060405260fa6009553480156013575f5ffd5b50600180546001600160a01b0319908116339081178355600a8054909216811782555f90815260076020526040808220805460ff19908116861790915592546001600160a01b031682529020805490911690911790556122da806100765f395ff3fe608060405260043610610195575f3560e01c80635d42b2b9116100e7578063bfb231d211610087578063ce6019b411610062578063ce6019b414610528578063ce606ee014610547578063d38ea5bf14610566578063fa2af9da14610579575f5ffd5b8063bfb231d2146104b4578063c4100ded146104ea578063ce2ce5cf14610509575f5ffd5b806367c65e99116100c257806367c65e99146103dc578063790437fe146103fb578063a4f0bbb71461044d578063bb033cd41461047d575f5ffd5b80635d42b2b91461034e5780636352211e1461037c57806366c64e51146103b0575f5ffd5b806326232a2e1161015257806342cf24291161012d57806342cf2429146102e75780634d3820eb146102fb5780634ec998331461030f5780635c3bd1411461032f575f5ffd5b806326232a2e146102a05780632b198366146102b55780634100ed7a146102d4575f5ffd5b80630aee636f146101995780630c43d6f3146101c05780630e50cee5146101e15780630fe002481461021f5780631247ac4b146102405780631caaa48714610254575b5f5ffd5b3480156101a4575f5ffd5b506101ad610598565b6040519081526020015b60405180910390f35b3480156101cb575f5ffd5b506101d46105e7565b6040516101b79190611c19565b3480156101ec575f5ffd5b5061020f6101fb366004611c76565b60056020525f908152604090205460ff1681565b60405190151581526020016101b7565b34801561022a575f5ffd5b5061023e610239366004611d35565b610723565b005b34801561024b575f5ffd5b506101ad610aa7565b34801561025f575f5ffd5b5061028861026e366004611df7565b60086020525f90815260409020546001600160a01b031681565b6040516001600160a01b0390911681526020016101b7565b3480156102ab575f5ffd5b506101ad60095481565b3480156102c0575f5ffd5b5061023e6102cf366004611c76565b610b0e565b3480156102df575f5ffd5b505f546101ad565b3480156102f2575f5ffd5b506101ad610b80565b348015610306575f5ffd5b5061023e610be7565b34801561031a575f5ffd5b50335f908152600660205260409020546101ad565b34801561033a575f5ffd5b506101ad610349366004611e0e565b610c8a565b348015610359575f5ffd5b5061020f610368366004611c76565b60076020525f908152604090205460ff1681565b348015610387575f5ffd5b50610288610396366004611df7565b5f908152600860205260409020546001600160a01b031690565b3480156103bb575f5ffd5b506103cf6103ca366004611df7565b610cb5565b6040516101b79190611e64565b3480156103e7575f5ffd5b5061023e6103f6366004611e0e565b610e1a565b348015610406575f5ffd5b5061041a610415366004611f0d565b61111a565b6040516101b79493929190931515845260208401929092526001600160a01b031660408301521515606082015260800190565b348015610458575f5ffd5b5061046c610467366004611f47565b6111b0565b6040516101b7959493929190611f67565b348015610488575f5ffd5b506101ad610497366004611f0d565b805160208183018101805160038252928201919093012091525481565b3480156104bf575f5ffd5b506104d36104ce366004611df7565b61128f565b6040516101b79b9a99989796959493929190611fab565b3480156104f5575f5ffd5b5061023e610504366004611f47565b61151a565b348015610514575f5ffd5b5061023e610523366004611df7565b6115db565b348015610533575f5ffd5b506101d4610542366004611c76565b6116e0565b348015610552575f5ffd5b50600154610288906001600160a01b031681565b61023e610574366004611df7565b611749565b348015610584575f5ffd5b50600a54610288906001600160a01b031681565b5f8060015b5f5481116105e1575f818152600860205260409020546001600160a01b0316156105cf57816105cb81612069565b9250505b806105d981612069565b91505061059d565b50919050565b60605f60015b5f54811161064f575f818152600860205260409020546001600160a01b03161580159061062a57505f8181526002602052604090206007015460ff165b1561063d578161063981612069565b9250505b8061064781612069565b9150506105ed565b505f8167ffffffffffffffff81111561066a5761066a611c96565b604051908082528060200260200182016040528015610693578160200160208202803683370190505b5090505f60015b5f54811161071a575f818152600860205260409020546001600160a01b0316158015906106d757505f8181526002602052604090206007015460ff165b1561070857808383815181106106ef576106ef612081565b60209081029190910101528161070481612069565b9250505b8061071281612069565b91505061069a565b50909392505050565b335f9081526005602052604090205460ff1661077c5760405162461bcd60e51b8152602060048201526013602482015272155cd95c881b9bdd081c9959da5cdd195c9959606a1b60448201526064015b60405180910390fd5b60038260405161078c9190612095565b9081526020016040518091039020545f146107e05760405162461bcd60e51b815260206004820152601460248201527353657269616c206e756d6265722065786973747360601b6044820152606401610773565b5f805490806107ee83612069565b90915550505f805480825260086020908152604080842080546001600160a01b031916339081179091558151610160810183528481528084018b81528184018b9052606082018a90526080820189905260a082019290925260c0810187905260e081018690526101008101869052610120810186905261014081018690528486526002909352932081518155925191929091600182019061088f9082612129565b5060408201516002820155606082015160038201906108ae9082612129565b50608082015160048201906108c39082612129565b5060a08201516005820180546001600160a01b0319166001600160a01b0390921691909117905560c082015160068201906108fe9082612129565b5060e082015160078201805460ff191691151591909117905561010080830151600883015561012083015160099092018054610140909401516001600160a81b0319909416921515610100600160a81b031916929092176001600160a01b0390931602919091179055604051819060039061097a908690612095565b908152604080516020928190038301812093909355335f81815260068452828120805460018082018355918352858320018790558682526004855283822060a087018552828752858701938452428786019081528551808701909652600c86526b2932b3b4b9ba3930ba34b7b760a11b8688015260608801958652608088018490528154808401835591845295909220865160059093020180546001600160a01b03199081166001600160a01b0394851617825593519181018054909416919092161790915591516002830155516003820190610a579082612129565b506080820151816004015550507fa3d89617a5e6e5b9541662946379863531fa40dd54355c6fc5d7c4c7d1a491cc818433604051610a97939291906121e4565b60405180910390a1505050505050565b5f8060015b5f5481116105e1575f818152600860205260409020546001600160a01b031615801590610ae957505f8181526002602052604090206009015460ff165b15610afc5781610af881612069565b9250505b80610b0681612069565b915050610aac565b6001546001600160a01b03163314610b5d5760405162461bcd60e51b81526020600482015260126024820152712737ba1031b7b73a3930b1ba1037bbb732b960711b6044820152606401610773565b6001600160a01b03165f908152600760205260409020805460ff19166001179055565b5f8060015b5f5481116105e1575f818152600860205260409020546001600160a01b031615801590610bc257505f8181526002602052604090206007015460ff165b15610bd55781610bd181612069565b9250505b80610bdf81612069565b915050610b85565b335f9081526005602052604090205460ff1615610c3b5760405162461bcd60e51b8152602060048201526012602482015271105b1c9958591e481c9959da5cdd195c995960721b6044820152606401610773565b335f81815260056020908152604091829020805460ff1916600117905590519182527f54db7a5cb4735e1aac1f53db512d3390390bb6637bd30ad4bf9fc98667d9b9b9910160405180910390a1565b6006602052815f5260405f208181548110610ca3575f80fd5b905f5260205f20015f91509150505481565b5f8181526008602052604090205460609082906001600160a01b0316610ced5760405162461bcd60e51b815260040161077390612214565b5f83815260046020908152604080832080548251818502810185019093528083529193909284015b82821015610e0e575f8481526020908190206040805160a0810182526005860290920180546001600160a01b03908116845260018201541693830193909352600283015490820152600382018054919291606084019190610d75906120ab565b80601f0160208091040260200160405190810160405280929190818152602001828054610da1906120ab565b8015610dec5780601f10610dc357610100808354040283529160200191610dec565b820191905f5260205f20905b815481529060010190602001808311610dcf57829003601f168201915b5050505050815260200160048201548152505081526020019060010190610d15565b50505050915050919050565b5f8181526008602052604090205481906001600160a01b03163314610e715760405162461bcd60e51b815260206004820152600d60248201526c2737ba103a34329037bbb732b960991b6044820152606401610773565b6001600160a01b0383165f9081526005602052604090205460ff16610ed85760405162461bcd60e51b815260206004820152601860248201527f526563697069656e74206e6f74207265676973746572656400000000000000006044820152606401610773565b5f82815260086020908152604080832080546001600160a01b038881166001600160a01b0319831617909255600290935292206007015491169060ff1615610f33575f838152600260205260409020600701805460ff191690555b6001600160a01b0381165f908152600660205260408120905b8154811015610fed5784828281548110610f6857610f68612081565b905f5260205f20015403610fe55781548290610f8690600190612241565b81548110610f9657610f96612081565b905f5260205f200154828281548110610fb157610fb1612081565b905f5260205f20018190555081805480610fcd57610fcd61225a565b600190038181905f5260205f20015f90559055610fed565b600101610f4c565b506001600160a01b038086165f818152600660209081526040808320805460018181018355918552838520018a905589845260048352818420825160a081018452898816815280850196875242818501908152845180860190955260088552672a3930b739b332b960c11b8587015260608201948552608082018790528254808501845592875294909520855160059092020180549188166001600160a01b03199283161781559551918601805492909716911617909455516002830155915160038201906110bc9082612129565b5060809190910151600490910155604080518581526001600160a01b03848116602083015287168183015290517f9d0353aeb19b9952d7b54a1f8427105b8885d62f9c4e04d82cca517abe142f519181900360600190a15050505050565b5f5f5f5f60038560405161112e9190612095565b9081526020016040518091039020549250825f148061116157505f838152600860205260409020546001600160a01b0316155b1561117657505f9250829150819050806111a9565b50505f81815260086020908152604080832054600290925290912060090154600193506001600160a01b039091169060ff165b9193509193565b6004602052815f5260405f2081815481106111c9575f80fd5b5f91825260209091206005909102018054600182015460028301546003840180546001600160a01b0394851697509390921694509291611208906120ab565b80601f0160208091040260200160405190810160405280929190818152602001828054611234906120ab565b801561127f5780601f106112565761010080835404028352916020019161127f565b820191905f5260205f20905b81548152906001019060200180831161126257829003601f168201915b5050505050908060040154905085565b60026020525f9081526040902080546001820180549192916112b0906120ab565b80601f01602080910402602001604051908101604052809291908181526020018280546112dc906120ab565b80156113275780601f106112fe57610100808354040283529160200191611327565b820191905f5260205f20905b81548152906001019060200180831161130a57829003601f168201915b505050505090806002015490806003018054611342906120ab565b80601f016020809104026020016040519081016040528092919081815260200182805461136e906120ab565b80156113b95780601f10611390576101008083540402835291602001916113b9565b820191905f5260205f20905b81548152906001019060200180831161139c57829003601f168201915b5050505050908060040180546113ce906120ab565b80601f01602080910402602001604051908101604052809291908181526020018280546113fa906120ab565b80156114455780601f1061141c57610100808354040283529160200191611445565b820191905f5260205f20905b81548152906001019060200180831161142857829003601f168201915b505050600584015460068501805494956001600160a01b0390921694919350915061146f906120ab565b80601f016020809104026020016040519081016040528092919081815260200182805461149b906120ab565b80156114e65780601f106114bd576101008083540402835291602001916114e6565b820191905f5260205f20905b8154815290600101906020018083116114c957829003601f168201915b5050505060078301546008840154600990940154929360ff918216939092509081169061010090046001600160a01b03168b565b5f8281526008602052604090205482906001600160a01b031633146115715760405162461bcd60e51b815260206004820152600d60248201526c2737ba103a34329037bbb732b960991b6044820152606401610773565b5f838152600260205260409081902060078101805460ff19166001179055600801839055517f5ac49d898f4c1239088b74e396a1a86348f8870dbcc2476a3385fd12b62940c8906115ce9085908590918252602082015260400190565b60405180910390a1505050565b335f9081526007602052604090205460ff166116395760405162461bcd60e51b815260206004820152601860248201527f4e6f7420617574686f72697a65642063657274696669657200000000000000006044820152606401610773565b5f8181526008602052604090205481906001600160a01b031661166e5760405162461bcd60e51b815260040161077390612214565b5f82815260026020526040908190206009810180543361010081026001600160a81b031990921691909117600117909155915190917f6803f73764c0a203dea1f8cda3377e6a75cc6a76567546a85169305acd7fa1f0916115ce918682526001600160a01b0316602082015260400190565b6001600160a01b0381165f9081526006602090815260409182902080548351818402810184019094528084526060939283018282801561173d57602002820191905f5260205f20905b815481526020019060010190808311611729575b50505050509050919050565b335f9081526005602052604090205460ff1661179d5760405162461bcd60e51b8152602060048201526013602482015272155cd95c881b9bdd081c9959da5cdd195c9959606a1b6044820152606401610773565b5f8181526008602052604090205481906001600160a01b03166117d25760405162461bcd60e51b815260040161077390612214565b5f828152600260205260409020600781015460ff166118225760405162461bcd60e51b815260206004820152600c60248201526b4e6f7420666f722073616c6560a01b6044820152606401610773565b806008015434101561186b5760405162461bcd60e51b8152602060048201526012602482015271496e73756666696369656e742066756e647360701b6044820152606401610773565b5f83815260086020526040902054336001600160a01b03909116036118c85760405162461bcd60e51b815260206004820152601360248201527243616e6e6f7420627579206f776e206974656d60681b6044820152606401610773565b5f838152600860208190526040822054908301546009546001600160a01b03909216929091612710906118fb908461226e565b6119059190612285565b90505f6119128284612241565b5f8881526008602052604080822080546001600160a01b03191633179055519192506001600160a01b0386169183156108fc0291849190818181858888f19350505050158015611964573d5f5f3e3d5ffd5b50600a546040516001600160a01b039091169083156108fc029084905f818181858888f1935050505015801561199c573d5f5f3e3d5ffd5b50823411156119da57336108fc6119b38534612241565b6040518115909202915f818181858888f193505050501580156119d8573d5f5f3e3d5ffd5b505b60078501805460ff191690555f878152600460208181526040808420815160a0810183526001600160a01b03808b168252338286019081524283860190815285518087019096529685526353616c6560e01b8587015260608301948552608083018b905283546001818101865594895295909720825160059096020180549582166001600160a01b0319968716178155965192870180549390911692909416919091179092559151600284015590519091906003820190611a9b9082612129565b50608091909101516004909101556001600160a01b0384165f908152600660205260408120905b8154811015611b635788828281548110611ade57611ade612081565b905f5260205f20015403611b5b5781548290611afc90600190612241565b81548110611b0c57611b0c612081565b905f5260205f200154828281548110611b2757611b27612081565b905f5260205f20018190555081805480611b4357611b4361225a565b600190038181905f5260205f20015f90559055611b63565b600101611ac2565b50335f8181526006602090815260408083208054600181018255908452928290209092018b905581518b81529081019290925281018590527fa574c741071bb18f51fa88c17aeefec514bebf670ca22a3736fba6504ecbb7639060600160405180910390a1604080518981526001600160a01b0387166020820152338183015290517f9d0353aeb19b9952d7b54a1f8427105b8885d62f9c4e04d82cca517abe142f519181900360600190a15050505050505050565b602080825282518282018190525f918401906040840190835b81811015611c50578351835260209384019390920191600101611c32565b509095945050505050565b80356001600160a01b0381168114611c71575f5ffd5b919050565b5f60208284031215611c86575f5ffd5b611c8f82611c5b565b9392505050565b634e487b7160e01b5f52604160045260245ffd5b5f82601f830112611cb9575f5ffd5b813567ffffffffffffffff811115611cd357611cd3611c96565b604051601f8201601f19908116603f0116810167ffffffffffffffff81118282101715611d0257611d02611c96565b604052818152838201602001851015611d19575f5ffd5b816020850160208301375f918101602001919091529392505050565b5f5f5f5f5f60a08688031215611d49575f5ffd5b853567ffffffffffffffff811115611d5f575f5ffd5b611d6b88828901611caa565b95505060208601359350604086013567ffffffffffffffff811115611d8e575f5ffd5b611d9a88828901611caa565b935050606086013567ffffffffffffffff811115611db6575f5ffd5b611dc288828901611caa565b925050608086013567ffffffffffffffff811115611dde575f5ffd5b611dea88828901611caa565b9150509295509295909350565b5f60208284031215611e07575f5ffd5b5035919050565b5f5f60408385031215611e1f575f5ffd5b611e2883611c5b565b946020939093013593505050565b5f81518084528060208401602086015e5f602082860101526020601f19601f83011685010191505092915050565b5f602082016020835280845180835260408501915060408160051b8601019250602086015f5b82811015611f0157603f19878603018452815160018060a01b03815116865260018060a01b03602082015116602087015260408101516040870152606081015160a06060880152611ede60a0880182611e36565b608092830151979092019690965294506020938401939190910190600101611e8a565b50929695505050505050565b5f60208284031215611f1d575f5ffd5b813567ffffffffffffffff811115611f33575f5ffd5b611f3f84828501611caa565b949350505050565b5f5f60408385031215611f58575f5ffd5b50508035926020909101359150565b6001600160a01b038681168252851660208201526040810184905260a0606082018190525f90611f9990830185611e36565b90508260808301529695505050505050565b8b815261016060208201525f611fc561016083018d611e36565b8b60408401528281036060840152611fdd818c611e36565b90508281036080840152611ff1818b611e36565b6001600160a01b038a1660a085015283810360c085015290506120148189611e36565b91505085151560e0830152846101008301528315156101208301526120456101408301846001600160a01b03169052565b9c9b505050505050505050505050565b634e487b7160e01b5f52601160045260245ffd5b5f6001820161207a5761207a612055565b5060010190565b634e487b7160e01b5f52603260045260245ffd5b5f82518060208501845e5f920191825250919050565b600181811c908216806120bf57607f821691505b6020821081036105e157634e487b7160e01b5f52602260045260245ffd5b601f82111561212457805f5260205f20601f840160051c810160208510156121025750805b601f840160051c820191505b81811015612121575f815560010161210e565b50505b505050565b815167ffffffffffffffff81111561214357612143611c96565b6121578161215184546120ab565b846120dd565b6020601f821160018114612189575f83156121725750848201515b5f19600385901b1c1916600184901b178455612121565b5f84815260208120601f198516915b828110156121b85787850151825560209485019460019092019101612198565b50848210156121d557868401515f19600387901b60f8161c191681555b50505050600190811b01905550565b838152606060208201525f6121fc6060830185611e36565b905060018060a01b0383166040830152949350505050565b602080825260139082015272125d195b48191bd95cc81b9bdd08195e1a5cdd606a1b604082015260600190565b8181038181111561225457612254612055565b92915050565b634e487b7160e01b5f52603160045260245ffd5b808202811582820484141761225457612254612055565b5f8261229f57634e487b7160e01b5f52601260045260245ffd5b50049056fea2646970667358221220f768d038f6be06c41df0ce5553d5b42364228030393922a3adb13a280b41520e64736f6c634300081c0033",
  "linkReferences": {},
  "deployedLinkReferences": {},
  "immutableReferences": {},
  "inputSourceName": "project/contracts/CertifiedSecondHandMarketplace.sol",
  "buildInfoId": "solc-0_8_28-a49cf12af485a6682b4e60728e161ed5786c4365"
}